{
  "_format": "hh-sol-artifact-1",
  "contractName": "Staking",
  "sourceName": "contracts/staking.sol",
  "abi": [
    {
      "inputs": [
        {
          "internalType": "address",
          "name": "TA",
          "type": "address"
        },
        {
          "internalType": "address",
          "name": "TB",
          "type": "address"
        }
      ],
      "stateMutability": "nonpayable",
      "type": "constructor"
    },
    {
      "inputs": [],
      "name": "TOKENA",
      "outputs": [
        {
          "internalType": "contract ERC20_test",
          "name": "",
          "type": "address"
        }
      ],
      "stateMutability": "view",
      "type": "function"
    },
    {
      "inputs": [],
      "name": "TOKENB",
      "outputs": [
        {
          "internalType": "contract ERC20_test",
          "name": "",
          "type": "address"
        }
      ],
      "stateMutability": "view",
      "type": "function"
    },
    {
      "inputs": [],
      "name": "harvest",
      "outputs": [],
      "stateMutability": "nonpayable",
      "type": "function"
    },
    {
      "inputs": [],
      "name": "rate",
      "outputs": [
        {
          "internalType": "uint256",
          "name": "",
          "type": "uint256"
        }
      ],
      "stateMutability": "view",
      "type": "function"
    },
    {
      "inputs": [
        {
          "internalType": "uint256",
          "name": "amount",
          "type": "uint256"
        }
      ],
      "name": "stake",
      "outputs": [],
      "stateMutability": "nonpayable",
      "type": "function"
    },
    {
      "inputs": [],
      "name": "stakePeriod",
      "outputs": [
        {
          "internalType": "uint256",
          "name": "",
          "type": "uint256"
        }
      ],
      "stateMutability": "view",
      "type": "function"
    },
    {
      "inputs": [
        {
          "internalType": "address",
          "name": "",
          "type": "address"
        }
      ],
      "name": "stakes",
      "outputs": [
        {
          "internalType": "uint256",
          "name": "start",
          "type": "uint256"
        },
        {
          "internalType": "uint256",
          "name": "amounta",
          "type": "uint256"
        },
        {
          "internalType": "uint256",
          "name": "last_harvest",
          "type": "uint256"
        }
      ],
      "stateMutability": "view",
      "type": "function"
    },
    {
      "inputs": [],
      "name": "unstake",
      "outputs": [],
      "stateMutability": "nonpayable",
      "type": "function"
    }
  ],
  "bytecode": "0x60806040526005600255610e1060035534801561001b57600080fd5b50604051610f76380380610f76833981810160405281019061003d91906100da565b816000806101000a81548173ffffffffffffffffffffffffffffffffffffffff021916908373ffffffffffffffffffffffffffffffffffffffff16021790555080600160006101000a81548173ffffffffffffffffffffffffffffffffffffffff021916908373ffffffffffffffffffffffffffffffffffffffff160217905550505061015f565b6000815190506100d481610148565b92915050565b600080604083850312156100ed57600080fd5b60006100fb858286016100c5565b925050602061010c858286016100c5565b9150509250929050565b600061012182610128565b9050919050565b600073ffffffffffffffffffffffffffffffffffffffff82169050919050565b61015181610116565b811461015c57600080fd5b50565b610e088061016e6000396000f3fe608060405234801561001057600080fd5b50600436106100885760003560e01c80634641257d1161005b5780634641257d1461010557806352f3e5281461010f578063a694fc3a1461012d578063c1699a991461014957610088565b806316934fc41461008d5780631c6afddc146100bf5780632c4e722e146100dd5780632def6620146100fb575b600080fd5b6100a760048036038101906100a291906108a8565b610167565b6040516100b693929190610af2565b60405180910390f35b6100c7610191565b6040516100d49190610a3c565b60405180910390f35b6100e56101b7565b6040516100f29190610ad7565b60405180910390f35b6101036101bd565b005b61010d610416565b005b61011761064e565b6040516101249190610a3c565b60405180910390f35b610147600480360381019061014291906108fa565b610672565b005b610151610863565b60405161015e9190610ad7565b60405180910390f35b60046020528060005260406000206000915090508060000154908060010154908060020154905083565b600160009054906101000a900473ffffffffffffffffffffffffffffffffffffffff1681565b60025481565b6000600460003373ffffffffffffffffffffffffffffffffffffffff1673ffffffffffffffffffffffffffffffffffffffff168152602001908152602001600020600001541415610243576040517f08c379a000000000000000000000000000000000000000000000000000000000815260040161023a90610ab7565b60405180910390fd5b61012b600460003373ffffffffffffffffffffffffffffffffffffffff1673ffffffffffffffffffffffffffffffffffffffff16815260200190815260200160002060000154426102949190610bc5565b116102d4576040517f08c379a00000000000000000000000000000000000000000000000000000000081526004016102cb90610a77565b60405180910390fd5b6102dc610416565b60008054906101000a900473ffffffffffffffffffffffffffffffffffffffff1673ffffffffffffffffffffffffffffffffffffffff1663a9059cbb33600460003373ffffffffffffffffffffffffffffffffffffffff1673ffffffffffffffffffffffffffffffffffffffff168152602001908152602001600020600101546040518363ffffffff1660e01b8152600401610379929190610a13565b602060405180830381600087803b15801561039357600080fd5b505af11580156103a7573d6000803e3d6000fd5b505050506040513d601f19601f820116820180604052508101906103cb91906108d1565b506000600460003373ffffffffffffffffffffffffffffffffffffffff1673ffffffffffffffffffffffffffffffffffffffff16815260200190815260200160002060000181905550565b6000600460003373ffffffffffffffffffffffffffffffffffffffff1673ffffffffffffffffffffffffffffffffffffffff16815260200190815260200160002060000154141561049c576040517f08c379a000000000000000000000000000000000000000000000000000000000815260040161049390610ab7565b60405180910390fd5b60006064600254600460003373ffffffffffffffffffffffffffffffffffffffff1673ffffffffffffffffffffffffffffffffffffffff16815260200190815260200160002060010154600460003373ffffffffffffffffffffffffffffffffffffffff1673ffffffffffffffffffffffffffffffffffffffff16815260200190815260200160002060020154426105349190610bc5565b61053e9190610b6b565b6105489190610b6b565b6105529190610b3a565b905042600460003373ffffffffffffffffffffffffffffffffffffffff1673ffffffffffffffffffffffffffffffffffffffff16815260200190815260200160002060020181905550600160009054906101000a900473ffffffffffffffffffffffffffffffffffffffff1673ffffffffffffffffffffffffffffffffffffffff1663a9059cbb33836040518363ffffffff1660e01b81526004016105f8929190610a13565b602060405180830381600087803b15801561061257600080fd5b505af1158015610626573d6000803e3d6000fd5b505050506040513d601f19601f8201168201806040525081019061064a91906108d1565b5050565b60008054906101000a900473ffffffffffffffffffffffffffffffffffffffff1681565b6000600460003373ffffffffffffffffffffffffffffffffffffffff1673ffffffffffffffffffffffffffffffffffffffff16815260200190815260200160002060000154146106f7576040517f08c379a00000000000000000000000000000000000000000000000000000000081526004016106ee90610a97565b60405180910390fd5b60008054906101000a900473ffffffffffffffffffffffffffffffffffffffff1673ffffffffffffffffffffffffffffffffffffffff166323b872dd3330846040518463ffffffff1660e01b8152600401610754939291906109dc565b602060405180830381600087803b15801561076e57600080fd5b505af1158015610782573d6000803e3d6000fd5b505050506040513d601f19601f820116820180604052508101906107a691906108d1565b6107e5576040517f08c379a00000000000000000000000000000000000000000000000000000000081526004016107dc90610a57565b60405180910390fd5b604051806060016040528042815260200182815260200142815250600460003373ffffffffffffffffffffffffffffffffffffffff1673ffffffffffffffffffffffffffffffffffffffff16815260200190815260200160002060008201518160000155602082015181600101556040820151816002015590505050565b60035481565b60008135905061087881610d8d565b92915050565b60008151905061088d81610da4565b92915050565b6000813590506108a281610dbb565b92915050565b6000602082840312156108ba57600080fd5b60006108c884828501610869565b91505092915050565b6000602082840312156108e357600080fd5b60006108f18482850161087e565b91505092915050565b60006020828403121561090c57600080fd5b600061091a84828501610893565b91505092915050565b61092c81610bf9565b82525050565b61093b81610c41565b82525050565b600061094e600f83610b29565b915061095982610cc3565b602082019050919050565b6000610971602583610b29565b915061097c82610cec565b604082019050919050565b6000610994600f83610b29565b915061099f82610d3b565b602082019050919050565b60006109b7601c83610b29565b91506109c282610d64565b602082019050919050565b6109d681610c37565b82525050565b60006060820190506109f16000830186610923565b6109fe6020830185610923565b610a0b60408301846109cd565b949350505050565b6000604082019050610a286000830185610923565b610a3560208301846109cd565b9392505050565b6000602082019050610a516000830184610932565b92915050565b60006020820190508181036000830152610a7081610941565b9050919050565b60006020820190508181036000830152610a9081610964565b9050919050565b60006020820190508181036000830152610ab081610987565b9050919050565b60006020820190508181036000830152610ad0816109aa565b9050919050565b6000602082019050610aec60008301846109cd565b92915050565b6000606082019050610b0760008301866109cd565b610b1460208301856109cd565b610b2160408301846109cd565b949350505050565b600082825260208201905092915050565b6000610b4582610c37565b9150610b5083610c37565b925082610b6057610b5f610c94565b5b828204905092915050565b6000610b7682610c37565b9150610b8183610c37565b9250817fffffffffffffffffffffffffffffffffffffffffffffffffffffffffffffffff0483118215151615610bba57610bb9610c65565b5b828202905092915050565b6000610bd082610c37565b9150610bdb83610c37565b925082821015610bee57610bed610c65565b5b828203905092915050565b6000610c0482610c17565b9050919050565b60008115159050919050565b600073ffffffffffffffffffffffffffffffffffffffff82169050919050565b6000819050919050565b6000610c4c82610c53565b9050919050565b6000610c5e82610c17565b9050919050565b7f4e487b7100000000000000000000000000000000000000000000000000000000600052601160045260246000fd5b7f4e487b7100000000000000000000000000000000000000000000000000000000600052601260045260246000fd5b7f5472616e73666572206661696c65640000000000000000000000000000000000600082015250565b7f596f752063616e20756e7374616b65206f6e6c792061667465722035206d696e60008201527f7574657321000000000000000000000000000000000000000000000000000000602082015250565b7f416c7265616479207374616b696e670000000000000000000000000000000000600082015250565b7f596f752068617665206e6f742061207374616b652072756e6e696e6700000000600082015250565b610d9681610bf9565b8114610da157600080fd5b50565b610dad81610c0b565b8114610db857600080fd5b50565b610dc481610c37565b8114610dcf57600080fd5b5056fea264697066735822122093677f4eadb7719bdde3e0e2a7a01357ab700c30173dd684643e8fddaf3583e764736f6c63430008040033",
  "linkReferences": {},
  "deployedLinkReferences": {}
}